:100000000C945C000C946E000C946E000C946E00CA
:100010000C946E000C946E000C946E000C946E00A8
:100020000C946E000C946E000C946E000C946E0098
:100030000C946E000C946E000C946E000C946E0088
:100040000C949C010C946E000C946E000C946E0049
:100050000C946E000C946E000C946E000C946E0068
:100060000C946E000C946E00000000080002010069
:100070000003040700000000000000000102040863
:100080001020408001020408102001020408102002
:10009000040404040404040402020202020203032E
:1000A0000303030300000000250028002B000000CC
:1000B0000000240027002A0011241FBECFEFD8E043
:1000C000DEBFCDBF21E0A0E0B1E001C01D92A930AC
:1000D000B207E1F70E9417030C9427030C94000069
:1000E00061E081E00E94A70261E082E00E94A70235
:1000F00061E083E00E94A70261E084E00E94A70221
:1001000061E085E00E94A70261E086E00E94A7020C
:1001100061E087E00E94A70261E088E00E94A702F8
:1001200061E089E00C94A70261E081E00E94E002B6
:1001300060E082E00E94E00260E083E00E94E00272
:1001400060E084E00E94E00260E085E00E94E0025E
:1001500061E086E00E94E00260E087E00E94E00249
:1001600060E088E00E94E00261E089E00C94E00237
:1001700061E081E00E94E00261E082E00E94E00232
:1001800060E083E00E94E00260E084E00E94E00220
:1001900061E085E00E94E00261E086E00E94E0020A
:1001A00060E087E00E94E00260E088E00E94E002F8
:1001B00061E089E00C94E00260E081E00E94E002EE
:1001C00060E082E00E94E00261E083E00E94E002E1
:1001D00061E084E00E94E00260E085E00E94E002CD
:1001E00060E086E00E94E00260E087E00E94E002BA
:1001F00060E088E00E94E00261E089E00C94E002A7
:1002000060E081E00E94E00260E082E00E94E002A3
:1002100061E083E00E94E00261E084E00E94E0028D
:1002200061E085E00E94E00260E086E00E94E0027A
:1002300060E087E00E94E00260E088E00E94E00267
:1002400061E089E00C94E00260E081E00E94E0025D
:1002500060E082E00E94E00261E083E00E94E00250
:1002600060E084E00E94E00260E085E00E94E0023D
:1002700061E086E00E94E00261E087E00E94E00227
:1002800060E088E00E94E00260E089E00C94E00217
:1002900060E081E00E94E00261E082E00E94E00212
:1002A00061E083E00E94E00260E084E00E94E002FE
:1002B00060E085E00E94E00261E086E00E94E002EA
:1002C00061E087E00E94E00261E088E00E94E002D5
:1002D00060E089E00C94E0020E94940068E873E119
:1002E00080E090E00E9409020E94B80068EE73E08E
:1002F00080E090E00E9409020E94DC0068E873E15F
:1003000080E090E00E9409020E94000168EE73E024
:1003100080E090E00E9409020E94240168E873E1F5
:1003200080E090E00E9409020E94480168EE73E0BC
:1003300080E090E00C9409021F920F920FB60F928A
:1003400011242F933F938F939F93AF93BF938091EB
:10035000010190910201A0910301B091040130913B
:10036000000123E0230F2D3720F40196A11DB11DBC
:1003700005C026E8230F0296A11DB11D20930001A0
:100380008093010190930201A0930301B0930401B3
:100390008091050190910601A0910701B09108019B
:1003A0000196A11DB11D8093050190930601A093B4
:1003B0000701B0930801BF91AF919F918F913F9139
:1003C0002F910F900FBE0F901F9018953FB7F89484
:1003D0008091050190910601A0910701B09108015B
:1003E00026B5A89B05C02F3F19F00196A11DB11D90
:1003F0003FBF6627782F892F9A2F620F711D811DAD
:10040000911D42E0660F771F881F991F4A95D1F70B
:1004100008958F929F92AF92BF92CF92DF92EF9208
:10042000FF926B017C010E94E6014B015C01C1144B
:10043000D104E104F104F1F00E9426030E94E601D8
:10044000681979098A099B09683E734081059105FD
:1004500070F321E0C21AD108E108F10888EE880E95
:1004600083E0981EA11CB11CC114D104E104F10465
:1004700029F7DDCFFF90EF90DF90CF90BF90AF9046
:100480009F908F900895789484B5826084BD84B5E0
:10049000816084BD85B5826085BD85B5816085BD7F
:1004A000EEE6F0E0808181608083E1E8F0E0108298
:1004B000808182608083808181608083E0E8F0E0D9
:1004C000808181608083E1EBF0E0808184608083C3
:1004D000E0EBF0E0808181608083EAE7F0E08081FA
:1004E000846080838081826080838081816080835A
:1004F0008081806880831092C1000895833081F0EC
:1005000028F4813099F08230A1F008958730A9F065
:100510008830B9F08430D1F4809180008F7D03C0A1
:10052000809180008F7780938000089584B58F77C5
:1005300002C084B58F7D84BD08958091B0008F770F
:1005400003C08091B0008F7D8093B0000895CF9359
:10055000DF9390E0FC01E458FF4F2491FC01E05749
:10056000FF4F8491882349F190E0880F991FFC0187
:10057000E255FF4FA591B4918C559F4FFC01C59159
:10058000D4919FB7611108C0F8948C912095822373
:100590008C93888182230AC0623051F4F8948C9144
:1005A000322F309583238C938881822B888304C0DB
:1005B000F8948C91822B8C939FBFDF91CF910895FB
:1005C0000F931F93CF93DF931F92CDB7DEB7282FE2
:1005D00030E0F901E859FF4F8491F901E458FF4FE9
:1005E0001491F901E057FF4F04910023C9F08823CB
:1005F00021F069830E947E026981E02FF0E0EE0F16
:10060000FF1FEC55FF4FA591B4919FB7F8948C91C3
:10061000611103C01095812301C0812B8C939FBF72
:100620000F90DF91CF911F910F91089508950E942F
:1006300043020E9416030E947000C0E0D0E00E94B6
:100640006C012097E1F30E940000F9CF0895F8941F
:02065000FFCFDA
:00000001FF
